:1000000019C1000027C5000050C5000079C50000D7
:10001000A2C50000CBC50000F4C500001DC600004D
:1000200046C6000038C1000036C1000034C10000DF
:1000300032C100000C94980C2EC100002CC10000AD
:100040002AC1000028C1000026C1000024C1000010
:1000500022C1000020C100001EC1000053C60000E4
:100060001AC100000C9430090C94660914C10000F8
:1000700012C1000010C100000EC100000CC1000040
:100080000AC1000008C1000006C1000004C1000050
:100090000C94BC090C94F209FEC00000FCC00000E6
:1000A000FAC00000F8C00000F6C00000F4C0000074
:1000B000F2C00000F0C00000EEC00000ECC0000084
:1000C000EAC00000E8C000000C941B0D0C94480A24
:1000D0000C947E0AE0C000000C94D40A0C940A0B25
:1000E000DAC0000049074C073B073F074507830775
:1000F000500754075A075E07620768076C077007C6
:10010000830776077A077E0700000A0B02090C0DA9
:100110000E080703040100000000000000000000BA
:1001200000000000000000000000000000000000CF
:10013000000000001211100000000000000000008C
:1001400000000000000000000000000000000102AC
:1001500010202008081020401020408002010201D9
:100160000804020101020408102040808040201091
:1001700008040201800402018040201008040201EA
:100180000804020101020408102040800102040852
:10019000102040800505050507050808080802022B
:1001A00002020A0A08080404040401010101010111
:1001B00001010303030303030303040707070C0CF4
:1001C0000C0C0C0C0C0C02020202060606060606BB
:1001D00006060B0B0B0B0B0B0B0B00002000230078
:1001E000260029002C002F0032000001000003012E
:1001F0000601090100002200250028002B002E0026
:100200003100340002010000050108010B0100006B
:100210002100240027002A002D00300033000101B6
:100220000000040107010A0102008F091B0AA70A46
:10023000330B9F0B11241FBECFEFD1E2DEBFCDBF2A
:1002400000E00CBF12E0A0E0B2E0E2E1F0E200E08A
:100250000BBF02C007900D92A838B107D9F725E06F
:10026000A8E8B2E001C01D92A436B207E1F711E0A0
:10027000CAE1D1E000E006C021970109802FFE010C
:100280000E94FF0FC531D10780E00807A9F70E943F
:10029000820D0C940710B4CE662311F061E001C00A
:1002A00060E032C6662311F061E001C060E068C61C
:1002B00096D621E0019709F020E0822F08954F9211
:1002C0005F926F927F928F929F92AF92BF92CF92E6
:1002D000DF92EF92FF920F931F93CF93DF93C09023
:1002E0000A02D0900B02E0900C02F0900D02A701E0
:1002F0009601609133057091340580913505909198
:1003000036050E942C0E882341F0C0923305D0920E
:100310003405E0923505F092360582E1C9DFC82F39
:10032000C0900A02D0900B02E0900C02F0900D02F7
:10033000A70196016091290570912A0580912B05EE
:1003400090912C050E942C0E882361F1C701B60103
:100350004BD3882361F060910A0270910B02809167
:100360000C0290910D0240D381110CC013C060911A
:100370000A0270910B0280910C0290910D025DD3E4
:100380008111E9CF80900A0290900B02A0900C029C
:10039000B0900D028092290590922A05A0922B051B
:1003A000B0922C0583E184DF982F9C2751F0209197
:1003B0001905213031F021E0C81301C020E020935D
:1003C0001E0590931905CC23F1F08091180581301A
:1003D000D1F02091120230911302409114025091F9
:1003E000150260911A0570911B0580911C05909172
:1003F0001D050E94C80D60931A0570931B0580931C
:100400001C0590931D05C093180520911A05309185
:100410001B0540911C0550911D05609122027091B1
:10042000230280912402909125020E947A0F20914C
:100430001A0230911B0240911C0250911D020E9431
:100440007A0F6B017C0180911E05682F70E080E0BF
:1004500090E00E94C40E9B01AC01C701B6010E944E
:100460007A0F209126023091270240912802509164
:1004700029020E94C80D9B01AC0160911602709187
:10048000170280911802909119020E94C70D4B012A
:100490005C0140900A0250900B0260900C02709038
:1004A0000D02209141053091420540914305509144
:1004B00044050E94C80D20913A0230913B024091C0
:1004C0003C0250913D020E947A0FA30192010E94CA
:1004D0007A0F20914505309146054091470550918E
:1004E00048050E94C80D6B017C016093450570931F
:1004F0004605809347059093480520913D0530912E
:100500003E0540913F0550914005C501B4010E9450
:10051000C70DA30192010E94300E2091320230914A
:10052000330240913402509135020E947A0F2B0120
:100530003C0120912A0230912B0240912C025091D3
:100540002D02C501B4010E947A0F9B01AC01C301C9
:10055000B2010E94C80D2B013C0120914202309152
:1005600043024091440250914502C701B6010E94E6
:100570007A0F9B01AC01C301B2010E94C80D6B014F
:100580007C01409046025090470260904802709073
:100590004902A30192010E94760F181684F0409040
:1005A0004A0250904B0260904C0270904D02A301A1
:1005B0009201C701B6010E942C0E87FF09C040922C
:1005C0001F0550922005609221057092220508C0F7
:1005D000C0921F05D0922005E0922105F0922205DD
:1005E00020E030E0A901C701B6010E942C0E87FD72
:1005F0001BC020E030E0A901C701B6010E94760FC0
:100600001816BCF020E030E0A901C701B6010E9435
:100610002C0E882399F00091580510915905D0911E
:100620005A05C0915B050EC000E010E0D0E8CFEBAA
:1006300009C000E010E0D0E8CFE304C000E010E023
:10064000D0E0C0E0C0904E02D0904F02E090500247
:10065000F09051029601A701B8018D2F9C2F0E94A6
:10066000760F18168CF0C0905202D0905302E09092
:100670005402F09055029601A701B8018D2F9C2FCE
:100680000E942C0E87FF03C08601DE2DCF2D20E0B7
:1006900030E040E853E4B8018D2F9C2F0E942C0ECF
:1006A00087FF10C020E030E0A901B8018D2F9C2FFA
:1006B0000E94760F87FD08C0B8018D2F9C2F0E94E5
:1006C000980E03C06FEF01C060E088E1EBDD80921F
:1006D0003D0590923E05A0923F05B0924005809264
:1006E000410590924205A0924305B0924405DF91E6
:1006F000CF911F910F91FF90EF90DF90CF90BF901F
:10070000AF909F908F907F906F905F904F900895E3
:10071000CF92DF92EF92FF921F93CF93DF9384E00B
:1007200090E02BD1109217051092160585E0EAE1B2
:10073000F5E0DF011D928A95E9F789E2E3E2F5E051
:10074000DF011D928A95E9F710921F05109220058E
:100750001092210510922205C1E0C0934B056091D3
:100760000A0270910B0280910C0290910D023CD113
:10077000182F60910A0270910B0280910C029091E7
:100780000D025BD1D82F80910A0290910B02A091AB
:100790000C02B0910D028093330590933405A09321
:1007A0003505B09336051092320581E090E0A0E067
:1007B000B0E080932E0590932F05A0933005B09361
:1007C000310560E082E168DDC093320510922405B6
:1007D00010922505109226051092270510922305E8
:1007E000C0934A0511110BC0D11109C0C0900A0273
:1007F000D0900B02E0900C02F0900D020BC06091C3
:100800000A0270910B0280910C0290910D02ECD0C3
:100810008111ECCFC0922905D0922A05E0922B05D8
:10082000F0922C0510922805C12CD12C7601C3948E
:10083000C0922405D0922505E0922605F092270566
:1008400060E083E129DDC1E0C093280510923705FF
:10085000C093490510923C05C0923805D0923905E5
:10086000E0923A05F0923B0561E088E115DDC09326
:100870003C05C0931905C093180580912E029091F4
:100880002F02A0913002B091310280933D059093E8
:100890003E05A0933F05B0934005809136029091AC
:1008A0003702A0913802B0913902809341059093AC
:1008B0004205A0934305B093440580913E02909178
:1008C0003F02A0914002B091410280934505909370
:1008D0004605A0934705B093480580915E0280933A
:1008E0001E0580910E0290910F02A0911002B0910E
:1008F000110280931A0590931B05A0931C05B093D9
:100900001D05DF91CF911F91FF90EF90DF90CF9069
:10091000089580912D05811103C081E080932D05FC
:1009200080912305811103C081E08093230580918C
:100930003705811103C081E080933705089560E099
:1009400070E080E89FE7089560E070E080E89FE74E
:10095000089560E070E080E89FEF089560E070E047
:1009600080E89FEF089560E070E080EC9FEF0895CD
:1009700060E070E080EC9FEF0895F5DF609358052C
:100980007093590580935A0590935B05F1DF60934E
:100990004C0570934D0580934E0590934F05CFDF26
:1009A00060935405709355058093560590935705B1
:1009B000CBDF60935005709351058093520590935F
:1009C0005305C7DF60935C0570935D0580935E05FA
:1009D00090935F05C3DF609360057093610580931A
:1009E0006205909363050895CF92DF92EF92FF9294
:1009F000CF936B017C0120915405309155054091B6
:100A00005605509157050E942C0EC1E0882371F0C5
:100A100020915C0530915D0540915E0550915F0528
:100A2000C701B6010E942C0E8111C0E08C2FCF911E
:100A3000FF90EF90DF90CF900895CF93C1E09B019E
:100A4000AC010E942C0E811101C0C0E08C2FCF910F
:100A5000089508951F920F920FB60F9211240BB6AE
:100A60000F922F933F934F935F936F937F938F9347
:100A70009F93AF93BF93EF93FF93E0916302F09145
:100A800064021995FF91EF91BF91AF919F918F9162
:100A90007F916F915F914F913F912F910F900BBE7E
:100AA0000F900FBE0F901F9018951F920F920FB6C8
:100AB0000F9211240BB60F922F933F934F935F9396
:100AC0006F937F938F939F93AF93BF93EF93FF9316
:100AD000E0916502F09166021995FF91EF91BF9147
:100AE000AF919F918F917F916F915F914F913F91C6
:100AF0002F910F900BBE0F900FBE0F901F90189567
:100B00001F920F920FB60F9211240BB60F922F93D4
:100B10003F934F935F936F937F938F939F93AF9385
:100B2000BF93EF93FF93E0916702F09168021995EC
:100B3000FF91EF91BF91AF919F918F917F916F91B5
:100B40005F914F913F912F910F900BBE0F900FBE71
:100B50000F901F9018951F920F920FB60F921124AD
:100B60000BB60F922F933F934F935F936F937F93A7
:100B70008F939F93AF93BF93EF93FF93E09169029D
:100B8000F0916A021995FF91EF91BF91AF919F91FA
:100B90008F917F916F915F914F913F912F910F9026
:100BA0000BBE0F900FBE0F901F9018951F920F92C3
:100BB0000FB60F9211240BB60F922F933F934F93C2
:100BC0005F936F937F938F939F93AF93BF93EF93B5
:100BD000FF93E0915F02F09160021995FF91EF9110
:100BE000BF91AF919F918F917F916F915F914F9145
:100BF0003F912F910F900BBE0F900FBE0F901F9043
:100C000018951F920F920FB60F9211240BB60F92E8
:100C10002F933F934F935F936F937F938F939F9304
:100C2000AF93BF93EF93FF93E0916102F091620263
:100C30001995FF91EF91BF91AF919F918F917F9106
:100C40006F915F914F913F912F910F900BBE0F903D
:100C50000FBE0F901F9018951F920F920FB60F9214
:100C600011240BB60F922F933F934F935F936F9383
:100C70007F938F939F93AF93BF93EF93FF93E091F5
:100C80006B02F0916C021995FF91EF91BF91AF91BA
:100C90009F918F917F916F915F914F913F912F9194
:100CA0000F900BBE0F900FBE0F901F9018951F92C4
:100CB0000F920FB60F9211240BB60F922F933F9302
:100CC0004F935F936F937F938F939F93AF93BF9354
:100CD000EF93FF93E0916D02F0916E021995FF91F1
:100CE000EF91BF91AF919F918F917F916F915F91A4
:100CF0004F913F912F910F900BBE0F900FBE0F9011
:100D00001F9018951F920F920FB60F9211242F93D8
:100D10003F938F939F93AF93BF938091890290915C
:100D20008A02A0918B02B0918C023091880223E05C
:100D3000230F2D3720F40196A11DB11D05C026E813
:100D4000230F0296A11DB11D209388028093890272
:100D500090938A02A0938B02B0938C0280918D02B3
:100D600090918E02A0918F02B09190020196A11DE8
:100D7000B11D80938D0290938E02A0938F02B09349
:100D80009002BF91AF919F918F913F912F910F90C2
:100D90000FBE0F901F901895789484B5826084BD23
:100DA00084B5816084BD85B5826085BD85B581606F
:100DB00085BDEEE6F0E0808181608083E1E8F0E0CF
:100DC0001082808182608083808181608083E0E8FE
:100DD000F0E0808181608083E1EBF0E080818460DD
:100DE0008083E0EBF0E0808181608083E1E9F0E0E6
:100DF000808182608083808181608083E0E9F0E08F
:100E0000808181608083E1EAF0E08081826080837C
:100E1000808181608083E0EAF0E08081816080836E
:100E2000E1E2F1E080818260808380818160808363
:100E3000E0E2F1E0808181608083EAE7F0E0808198
:100E400084608083808182608083808181608083F0
:100E50008081806880831092C100089590E0FC0139
:100E60003197E231F10508F04EC08827EE58FF4F68
:100E70008F4F0C94FF0F809180008F7703C080917B
:100E800080008F7D80938000089580918000877F0F
:100E9000F9CF84B58F7702C084B58F7D84BD089566
:100EA0008091B0008F7703C08091B0008F7D8093D8
:100EB000B0000895809190008F7707C080919000D6
:100EC0008F7D03C080919000877F8093900008956C
:100ED0008091A0008F7707C08091A0008F7D03C014
:100EE0008091A000877F8093A000089580912001C9
:100EF0008F7707C0809120018F7D03C080912001F2
:100F0000877F809320010895CF93DF9390E0FC01C9
:100F1000E25BFE4F2491FC01EC56FE4F8491882346
:100F200061F190E0880F991FFC01E25FFD4FC591D0
:100F3000D491FC01EC50FE4FA591B491611109C010
:100F40009FB7F8948881209582238883EC912E2383
:100F50000BC0623061F49FB7F8943881822F80957E
:100F600083238883EC912E2B2C939FBF06C08FB7D1
:100F7000F894E8812E2B28838FBFDF91CF910895BD
:100F80001F93CF93DF93282F30E0F901E85FFE4FE6
:100F90008491F901E25BFE4FD491F901EC56FE4FCA
:100FA000C491CC23C1F0162F811158DFEC2FF0E053
:100FB000EE0FFF1FEC50FE4FA591B4918FB7F89440
:100FC000111105C09C91ED2FE095E92302C0EC9131
:100FD000ED2BEC938FBFDF91CF911F910895CF93AD
:100FE000DF93282F30E0F901E85FFE4F8491F9018B
:100FF000E25BFE4FD491F901EC56FE4FC491CC2335
:1010000089F081112BDFEC2FF0E0EE0FFF1FE6528D
:10101000FE4FA591B491EC91ED2381E090E021F495
:1010200080E002C080E090E0DF91CF910895FC0164
:10103000918D228D892F90E0805C9F4F821B9109BA
:101040008F7399270895FC01918D828D981731F047
:10105000828DE80FF11D858D90E008958FEF9FEF51
:101060000895FC01918D828D981761F0828DDF01CA
:10107000A80FB11D5D968C91928D9F5F9F73928F8B
:1010800090E008958FEF9FEF0895FC01848DDF01BC
:10109000A80FB11DA35ABF4F2C91848D90E00196EB
:1010A0008F739927848FA689B7892C93A089B189DA
:1010B0008C9180648C93938D848D981306C00288E4
:1010C000F389E02D80818F7D80830895CF93DF9316
:1010D000EC01888D8823C1F0EA89FB89808185FD38
:1010E00005C0A889B9898C9186FD0EC00FB607FC92
:1010F000F5CF808185FFF2CFA889B9898C9185FFD2
:10110000EDCFCE01C2DFE8CFDF91CF910895EF920E
:10111000FF920F931F93CF93DF93EC0181E0888FB1
:101120009B8D8C8D981305C0E889F989808185FD98
:1011300023C0F62E0B8D10E00F5F1F4F0F7311278A
:10114000E02E8C8DE8120BC00FB607FCFACFE889B1
:10115000F989808185FFF5CFCE0197DFF2CF8B8DA6
:10116000FE01E80FF11DE35AFF4FF0820B8FEA8971
:10117000FB898081806207C0EE89FF896083E889EE
:10118000F98980818064808381E090E0DF91CF9154
:101190001F910F91FF90EF900895CF92DF92EF9201
:1011A000FF921F93CF93DF93EC016A017B01122F13
:1011B000E889F98982E080834115514E6105710506
:1011C000A9F060E079E08DE390E0A7019601F5D603
:1011D000DA01C9010197A109B109B695A7959795BB
:1011E0008795AC01411580E15807A0F0E889F9899D
:1011F000108260E874E88EE190E0A7019601DDD6E8
:10120000BA01A901415051096109710976956795A3
:1012100057954795EC85FD855083EE85FF85408386
:10122000188EEC89FD891083EA89FB8980818061B1
:101230008083EA89FB89808188608083EA89FB89D1
:10124000808180688083EA89FB8980818F7D8083AB
:10125000DF91CF911F91FF90EF90DF90CF90089595
:101260001F920F920FB60F9211240BB60F922F936D
:101270008F939F93EF93FF93E091A102F091A202CD
:101280008081E091A702F091A80282FD12C09081B6
:101290008091AA028F5F8F732091AB02821751F069
:1012A000E091AA02F0E0EF56FD4F958F8093AA02DD
:1012B00001C08081FF91EF919F918F912F910F90AD
:1012C0000BBE0F900FBE0F901F9018951F920F929C
:1012D0000FB60F9211240BB60F922F933F934F939B
:1012E0005F936F937F938F939F93AF93BF93EF938E
:1012F000FF9381E992E0C9DEFF91EF91BF91AF9139
:101300009F918F917F916F915F914F913F912F911D
:101310000F900BBE0F900FBE0F901F901895E1E934
:10132000F2E01382128288EE93E0A0E0B0E08483C2
:101330009583A683B78386E792E09183808385ECCB
:1013400090E09587848784EC90E09787868780EC8F
:1013500090E0918B808B81EC90E0938B828B82EC80
:1013600090E0958B848B86EC90E0978B868B118E2A
:10137000128E138E148E08951F920F920FB60F9235
:1013800011240BB60F922F938F939F93EF93FF939C
:10139000E0913E03F0913F038081E0914403F0919E
:1013A000450382FD12C09081809147038F5F8F7348
:1013B00020914803821751F0E0914703F0E0E25D8D
:1013C000FC4F958F8093470301C08081FF91EF917F
:1013D0009F918F912F910F900BBE0F900FBE0F908A
:1013E0001F9018951F920F920FB60F9211240BB6F3
:1013F0000F922F933F934F935F936F937F938F93AE
:101400009F93AF93BF93EF93FF938EE293E03DDE04
:10141000FF91EF91BF91AF919F918F917F916F91CC
:101420005F914F913F912F910F900BBE0F900FBE88
:101430000F901F901895EEE2F3E01382128288EE6F
:1014400093E0A0E0B0E084839583A683B78386E72A
:1014500092E0918380838DEC90E0958784878CEC7B
:1014600090E09787868788EC90E0918B808B89EC61
:1014700090E0938B828B8AEC90E0958B848B8EEC42
:1014800090E0978B868B118E128E138E148E08959A
:101490001F920F920FB60F9211240BB60F922F933B
:1014A0008F939F93EF93FF93E091DB03F091DC0325
:1014B0008081E091E103F091E20382FD12C090810E
:1014C0008091E4038F5F8F732091E503821751F0C1
:1014D000E091E403F0E0E553FC4F958F8093E40343
:1014E00001C08081FF91EF919F918F912F910F907B
:1014F0000BBE0F900FBE0F901F9018951F920F926A
:101500000FB60F9211240BB60F922F933F934F9368
:101510005F936F937F938F939F93AF93BF93EF935B
:10152000FF938BEC93E0B1DDFF91EF91BF91AF9111
:101530009F918F917F916F915F914F913F912F91EB
:101540000F900BBE0F900FBE0F901F901895EBECF5
:10155000F3E01382128288EE93E0A0E0B0E084838F
:101560009583A683B78386E792E09183808385ED98
:1015700090E09587848784ED90E09787868780ED5B
:1015800090E0918B808B81ED90E0938B828B82ED4C
:1015900090E0958B848B86ED90E0978B868B118EF7
:1015A000128E138E148E08951F920F920FB60F9203
:1015B00011240BB60F922F938F939F93EF93FF936A
:1015C000E0917804F09179048081E0917E04F091BB
:1015D0007F0482FD12C09081809181048F5F8F73A0
:1015E00020918204821751F0E0918104F0E0E859E3
:1015F000FB4F958F8093810401C08081FF91EF9113
:101600009F918F912F910F900BBE0F900FBE0F9057
:101610001F9018951F920F920FB60F9211240BB6C0
:101620000F922F933F934F935F936F937F938F937B
:101630009F93AF93BF93EF93FF9388E694E025DDEC
:10164000FF91EF91BF91AF919F918F917F916F919A
:101650005F914F913F912F910F900BBE0F900FBE56
:101660000F901F901895E8E6F4E01382128288EE3E
:1016700093E0A0E0B0E084839583A683B78386E7F8
:1016800092E09183808385E391E09587848784E36A
:1016900091E09787868780E391E0918B808B81E34F
:1016A00091E0938B828B82E391E0958B848B86E330
:1016B00091E0978B868B118E128E138E148E089567
:1016C0008F929F92AF92BF92CF92DF92EF92FF9252
:1016D0000F931F93CF93DF937C018B016C0182E00A
:1016E000C80ED11C4701E5E08E0E911CC0E0D0E091
:1016F000F60161916F014AE050E0C801C5D05C017C
:101700006EE2C80167D08A0D9B1DC80FD91FC8148F
:10171000D90471F74AE050E0F7016581C801B4D0FF
:101720008C0F9D1FDF91CF911F910F91FF90EF9034
:10173000DF90CF90BF90AF909F908F900895E5E09D
:10174000F5E086E892E0918380831282138214820E
:1017500015820895CF92DF92EF92FF920F931F931D
:10176000CF93DF936C017A018B01C0E0D0E0CE15FE
:10177000DF0589F0D8016D918D01D601ED91FC91C5
:101780000190F081E02DC6011995892B11F47E019D
:1017900002C02196ECCFC701DF91CF911F910F912D
:1017A000FF90EF90DF90CF9008956115710579F06B
:1017B000FB0101900020E9F73197AF01461B570B61
:1017C000DC01ED91FC910280F381E02D199480E021
:1017D00090E00895DC01ED91FC910190F081E02D05
:1017E00019944F925F926F927F92EF92FF920F93B4
:1017F0001F93CF93DF93CDB7DEB7A1970FB6F894C1
:10180000DEBF0FBECDBF7C01FA01CB0119A2223091
:1018100008F42AE08E010F5D1F4F422E512C612CDF
:10182000712CBF01A3019201C8D3F901CA01015073
:1018300011096A3014F4605D01C0695CD8016C93D1
:10184000232B242B252B69F7B801C701AEDFA19606
:101850000FB6F894DEBF0FBECDBFDF91CF911F91C1
:101860000F91FF90EF907F906F905F904F90089551
:101870002115310541F4DC01ED91FC910190F081DD
:10188000E02D642F1994ADCF9A01462F50E060E00F
:1018900070E0EECF8230A9F028F4882349F081303F
:1018A00051F00895843021F1E8F0853039F1089540
:1018B00010926E00089580916F008D7F80936F006D
:1018C0000895809170008D7F8093700081E08093F7
:1018D000B0008091B100887F84608093B100109245
:1018E000B3000895809171008D7F809371000895F9
:1018F000809172008D7F80937200089580917300B3
:101900008D7F809373000895CF93C82F80916F02CD
:101910008C1307C0E8E2F2E0E4918FEF80936F024E
:1019200001C0EFEF8E2FB6DF60E08C2FCF9128CB78
:101930001F920F920FB60F9211240BB60F922F9396
:101940003F934F935F936F937F938F939F93AF9347
:10195000BF93EF93FF9380910E0590910F05A09197
:101960001005B0911105892B8A2B8B2B51F1809199
:101970000B05E0910C05F0910D059081892780837E
:1019800080910E0590910F05A0911005B091110561
:10199000181619061A061B06BCF480910E059091C4
:1019A0000F05A0911005B09111050197A109B1098A
:1019B00080930E0590930F05A0931005B093110529
:1019C00003C080916F02A0DFFF91EF91BF91AF91B3
:1019D0009F918F917F916F915F914F913F912F9147
:1019E0000F900BBE0F900FBE0F901F90189540E800
:1019F00055E260E070E080E090E000C08130910549
:101A000071F01CF4892B39F008958230910559F05A
:101A1000039769F0089526E081E992E00BC026E083
:101A20008EE293E007C026E08BEC93E003C026E053
:101A300088E694E0B2CB1F920F920FB60F9211245A
:101A40000BB60F922F933F934F935F936F937F93B8
:101A50008F939F93AF93BF93EF93FF938EEF9FEF7F
:101A6000909325018093240134D0FF91EF91BF9191
:101A7000AF919F918F917F916F915F914F913F9126
:101A80002F910F900BBE0F900FBE0F901F901895C7
:101A90008EEF9FEF9093250180932401A3E7B0E0A0
:101AA0008C918E7F8C93E0E2F1E080818C7F80834B
:101AB000E1E2F1E08081877E8083808182608083A3
:101AC00080818A7F80838C9181608C93089581E0EE
:101AD00008958091130591E0980F90931305882342
:101AE00039F021E030E0309315052093140507C04C
:101AF00078940E945F01F89480911305815080933F
:101B0000130508950F931F93CF93DF931F92CDB7C3
:101B1000DEB781E0898340D96ADF009170021091BD
:101B20007102F801118210820E948803B1DF81E006
:101B3000F80120813181232B09F080E0898378949A
:101B4000789489818823C1F081E0F8012081318176
:101B5000232B09F480E0809312059091120581E017
:101B6000911180E089838981882311F0B0DF02C060
:101B700080E090E08983E5CF0E948904F89480E0BA
:101B800090E00F90DF91CF911F910F9108955058E1
:101B9000BB27AA270ED070C161D130F066D120F0EA
:101BA00031F49F3F11F41EF456C10EF4E095E7FBAB
:101BB0004CC1E92F72D180F3BA176207730784070B
:101BC000950718F071F49EF58AC10EF4E0950B2E7E
:101BD000BA2FA02D0B01B90190010C01CA01A0017F
:101BE0001124FF27591B99F0593F50F4503E68F1DA
:101BF0001A16F040A22F232F342F4427585FF3CF1B
:101C0000469537952795A795F0405395C9F77EF4EB
:101C10001F16BA0B620B730B840BBAF09150A1F034
:101C2000FF0FBB1F661F771F881FC2F70EC0BA0FBA
:101C3000621F731F841F48F4879577956795B79542
:101C4000F7959E3F08F0B3CF9395880F08F099273A
:101C5000EE0F979587950895D4D008F481E0089504
:101C60000CD00AC102D140F0F9D030F021F45F3F2E
:101C700019F0EBC0511134C1EEC00FD198F3992384
:101C8000C9F35523B1F3951B550BBB27AA27621740
:101C90007307840738F09F5F5F4F220F331F441F85
:101CA000AA1FA9F333D00E2E3AF0E0E830D09150BD
:101CB0005040E695001CCAF729D0FE2F27D0660FAA
:101CC000771F881FBB1F261737074807AB07B0E8E9
:101CD00009F0BB0B802DBF01FF2793585F4F2AF0FF
:101CE0009E3F510568F0B1C0FBC05F3FECF3983EEA
:101CF000DCF3869577956795B795F7959F5FC9F75C
:101D0000880F911D9695879597F90895E1E0660FE4
:101D1000771F881FBB1F621773078407BA0720F05D
:101D2000621B730B840BBA0BEE1F88F7E0950895C6
:101D3000BCD088F09F5790F0B92F9927B751A0F0E9
:101D4000D1F0660F771F881F991F1AF0BA95C9F74F
:101D500012C0B13081F0C3D0B1E00895C0C0672F88
:101D6000782F8827B85F39F0B93FCCF386957795FF
:101D70006795B395D9F73EF49095809570956195E8
:101D80007F4F8F4F9F4F0895E89409C097FB3EF413
:101D900090958095709561957F4F8F4F9F4F9923B8
:101DA000A9F0F92F96E9BB279395F6958795779536
:101DB0006795B795F111F8CFFAF4BB0F11F460FFF6
:101DC0001BC06F5F7F4F8F4F9F4F16C0882311F04E
:101DD00096E911C0772321F09EE8872F762F05C062
:101DE000662371F096E8862F70E060E02AF09A95FD
:101DF000660F771F881FDAF7880F9695879597F9F2
:101E00000895990F0008550FAA0BE0E8FEEF16168B
:101E10001706E807F907C0F012161306E407F507DE
:101E200098F0621B730B840B950B39F40A2661F052
:101E3000232B242B252B21F408950A2609F4A140F5
:101E4000A6958FEF811D811D089597F99F6780E802
:101E500070E060E008959FEF80EC089500240A94FC
:101E60001616170618060906089500240A94121675
:101E70001306140605060895092E0394000C11F4A8
:101E8000882352F0BB0F40F4BF2B11F460FF04C055
:101E90006F5F7F4F8F4F9F4F089557FD9058440FAE
:101EA000551F59F05F3F71F04795880F97FB991FB9
:101EB00061F09F3F79F08795089512161306140676
:101EC000551FF2CF4695F1DF08C016161706180603
:101ED000991FF1CF86957105610508940895E894DE
:101EE000BB2766277727CB0197F908958ADF08F487
:101EF0008FEF08950BD0C0CFB1DF28F0B6DF18F018
:101F0000952309F0A2CFA7CF1124EACFC6DFA0F313
:101F1000959FD1F3950F50E0551F629FF001729F7E
:101F2000BB27F00DB11D639FAA27F00DB11DAA1F9D
:101F3000649F6627B00DA11D661F829F2227B00DEA
:101F4000A11D621F739FB00DA11D621F839FA00D75
:101F5000611D221F749F3327A00D611D231F849FC5
:101F6000600D211D822F762F6A2F11249F5750401C
:101F70008AF0E1F088234AF0EE0FFF1FBB1F661FB7
:101F8000771F881F91505040A9F79E3F510570F070
:101F90005CCFA6CF5F3FECF3983EDCF38695779558
:101FA0006795B795F795E7959F5FC1F7FE2B880F6B
:101FB000911D9695879597F90895A1E21A2EAA1B6F
:101FC000BB1BFD010DC0AA1FBB1FEE1FFF1FA217E9
:101FD000B307E407F50720F0A21BB30BE40BF50BE6
:101FE000661F771F881F991F1A9469F7609570956F
:101FF000809590959B01AC01BD01CF010895EE0F36
:10200000FF1F881F8BBF0790F691E02D1994F8945D
:02201000FFCF00
:1020120000006405800001000000BD378635000025
:1020220000000000803F000020420000B443000096
:1020320000006F12833A000000003FE9933C000069
:10204200000000008242000000000000003F00008B
:10205200000017B7D13800007A4400009643000010
:10206200803F000000000100010001000100002982
:10207200052905290529052905290529052905FF18
:102082001605000000008708AA0B1708310823086C
:08209200660800000000600B6D
:00000001FF
