:100000005EC00000F0C1000015C200007FC000000B
:100010007DC000007BC0000079C0000006C6000063
:1000200075C0000073C0000071C000006FC0000008
:100030006DC0000060C6000069C0000067C000001D
:1000400020C2000063C000004EC400007EC4000057
:100050005DC000005BC0000059C0000057C0000038
:1000600055C0000053C0000000000008000201005D
:100070000003040700000000000000000102040863
:100080001020408001020408102001020408102002
:10009000040404040404040402020202020203032E
:1000A0000303030300000000250028002B000000CC
:1000B0000000240027002A000200CA04360511248B
:1000C0001FBECFEFD8E0DEBFCDBF11E0A0E0B1E0B2
:1000D000EEE3F2E102C005900D92A634B107D9F724
:1000E00022E0A6E4B1E001C01D92A83AB207E1F710
:1000F00010E0CFE5D0E004C02197FE010E9417096F
:10010000CD35D107C9F759D60C941D0979CF66238F
:1001100011F061E001C060E062C2662311F061E0AD
:1001200001C060E098C28F929F92AF92BF92CF922F
:10013000DF92EF92FF920F931F93CF93DF93E091A3
:100140009002F0919102208131814281538160912E
:100150001201709113018091140190911501E2D761
:100160006B017C0113D79B01AC01C701B60168D6B6
:1001700020E030E040E05FE3D1D740910E015091A4
:100180000F01609110017091110187FD03C0CB0137
:10019000BA0103C0CB01BA01905820910A013091F5
:1001A0000B0140910C0150910D014BD66B017C016C
:1001B000C1E020E030E0A901A8D6811101C0C0E073
:1001C0006C2F82E0AADFC1E020E030E0A901C70186
:1001D000B6019BD68111C0E06C2F83E09EDF809139
:1001E0007A0290917B02A0917C02B0917D02BC01C9
:1001F000CD016F5F7F4F8F4F9F4F60937A02709357
:100200007B0280937C0290937D02611571058105CC
:100210009105A1F400917E0210917F02209180024D
:10022000309181020F5F1F4F2F4F3F4F00937E028F
:1002300010937F022093800230938102C09082024B
:10024000D0908302E0908402F0908502C0919002E9
:10025000D09191025ED6A701960164D74B015C0153
:1002600060917E0270917F02809180029091810264
:1002700050D6A701960156D720E030E040E85FE471
:1002800051D79B01AC01C501B401DBD568837983EB
:100290008A839B838091860290918702A091880235
:1002A000B09189020196A11DB11D809386029093A1
:1002B0008702A0938802B0938902892B8A2B8B2B0B
:1002C00099F480918A0290918B02A0918C02B09156
:1002D0008D020196A11DB11D80938A0290938B021D
:1002E000A0938C02B0938D02DF91CF911F910F915B
:1002F000FF90EF90DF90CF90BF90AF909F908F9046
:100300000895CF92DF92EF92FF920F931F93CF93B6
:10031000DF93EDEFF1E08DE9DF011D928A95E9F7BA
:100320008EE892E095838483C0E9D2E0D0933C02CA
:10033000C0933B0202E812E0138B028BF09366023B
:10034000E0936502F383E28321E030E0DC012D934A
:100350003C938BE191E09187808782E992E09983D9
:1003600088834DEC5CEC6CE47EE3F80140835183C0
:1003700062837383CAE9D2E08EE0DE011D928A9522
:10038000E9F711E01D87C12CD12C7601C394CF82EF
:10039000D886E986FA8661E082E0B9DE1B8718829A
:1003A0001C871D82C982DA82EB82FC8261E083E0D5
:1003B000AEDE1D83DF91CF911F910F91FF90EF90E3
:1003C000DF90CF9008958091A002811103C081E059
:1003D0008093A00280919A02811103C081E08093F2
:1003E0009A02089508951F920F920FB60F9211244A
:1003F0002F933F934F935F936F937F938F939F932D
:10040000AF93BF93EF93FF93E0911601F091170123
:100410000995FF91EF91BF91AF919F918F917F913E
:100420006F915F914F913F912F910F900FBE0F9061
:100430001F9018951F920F920FB60F9211242F93B1
:100440003F934F935F936F937F938F939F93AF935C
:10045000BF93EF93FF93E0911801F0911901099573
:10046000FF91EF91BF91AF919F918F917F916F918C
:100470005F914F913F912F910F900FBE0F901F9062
:1004800018951F920F920FB60F9211242F933F933E
:100490008F939F93AF93BF938091470190914801B1
:1004A000A0914901B0914A013091460123E0230F08
:1004B0002D3720F40196A11DB11D05C026E8230F9C
:1004C0000296A11DB11D2093460180934701909390
:1004D0004801A0934901B0934A0180914B0190914A
:1004E0004C01A0914D01B0914E010196A11DB11D8D
:1004F00080934B0190934C01A0934D01B0934E011A
:10050000BF91AF919F918F913F912F910F900FBE0F
:100510000F901F901895789484B5826084BD84B53F
:10052000816084BD85B5826085BD85B5816085BDEE
:10053000EEE6F0E0808181608083E1E8F0E0108207
:10054000808182608083808181608083E0E8F0E048
:10055000808181608083E1EBF0E080818460808332
:10056000E0EBF0E0808181608083EAE7F0E0808169
:1005700084608083808182608083808181608083C9
:100580008081806880831092C1000895833081F05B
:1005900028F4813099F08230A1F008958730A9F0D5
:1005A0008830B9F08430D1F4809180008F7D03C011
:1005B000809180008F7780938000089584B58F7735
:1005C00002C084B58F7D84BD08958091B0008F777F
:1005D00003C08091B0008F7D8093B0000895CF93C9
:1005E000DF9390E0FC01E458FF4F2491FC01E057B9
:1005F000FF4F8491882361F190E0880F991FFC01DF
:10060000E255FF4FC591D491FC01EC55FF4FA591E8
:10061000B491611109C09FB7F89488812095822315
:100620008883EC912E230BC0623061F49FB7F8945D
:100630003881822F809583238883EC912E2B2C93F5
:100640009FBF06C08FB7F894E8812E2B28838FBFF9
:10065000DF91CF9108951F93CF93DF93282F30E040
:10066000F901E859FF4F8491F901E458FF4FD49103
:10067000F901E057FF4FC491CC23C1F0162F81112F
:1006800085DFEC2FF0E0EE0FFF1FEC55FF4FA5913B
:10069000B4918FB7F894111105C09C91ED2FE0959E
:1006A000E92302C0EC91ED2BEC938FBFDF91CF914A
:1006B0001F910895FC01918D228D892F90E0805C1F
:1006C0009F4F821B91098F7399270895FC01918D8B
:1006D000828D981731F0828DE80FF11D858D90E0A5
:1006E00008958FEF9FEF0895FC01918D828D9817EB
:1006F00061F0828DDF01A80FB11D5D968C91928D06
:100700009F5F9F73928F90E008958FEF9FEF089502
:10071000FC01848DDF01A80FB11DA35ABF4F2C919E
:10072000848D90E001968F739927848FA689B7896D
:100730002C93A089B1898C9180648C93938D848D46
:10074000981306C00288F389E02D80818F7D808315
:100750000895CF93DF93EC01888D8823C1F0EA8957
:10076000FB89808185FD05C0A889B9898C9186FDAA
:100770000EC00FB607FCF5CF808185FFF2CFA889A8
:10078000B9898C9185FFEDCFCE01C2DFE8CFDF9133
:10079000CF910895EF92FF920F931F93CF93DF9322
:1007A000EC0181E0888F9B8D8C8D981305C0E889C2
:1007B000F989808185FD23C0F62E0B8D10E00F5F37
:1007C0001F4F0F731127E02E8C8DE8120BC00FB650
:1007D00007FCFACFE889F989808185FFF5CFCE0142
:1007E00097DFF2CF8B8DFE01E80FF11DE35AFF4F2B
:1007F000F0820B8FEA89FB898081806207C0EE89D5
:10080000FF896083E889F98980818064808381E041
:1008100090E0DF91CF911F910F91FF90EF9008959D
:10082000CF92DF92EF92FF921F93CF93DF93EC0171
:100830006A017B01122FE889F98982E080834115E2
:10084000514E61057105A9F060E079E08DE390E01B
:10085000A7019601CAD4DA01C9010197A109B1091A
:10086000B695A79597958795AC01411580E15807F6
:10087000A0F0E889F989108260E874E88EE190E0E0
:10088000A7019601B2D4BA01A901415051096109E9
:1008900071097695679557954795EC85FD85508349
:1008A000EE85FF854083188EEC89FD891083EA89E7
:1008B000FB89808180618083EA89FB8980818860EF
:1008C0008083EA89FB89808180688083EA89FB894B
:1008D00080818F7D8083DF91CF911F91FF90EF907A
:1008E000DF90CF9008951F920F920FB60F921124B0
:1008F0002F938F939F93EF93FF93E0915F01F0917C
:1009000060018081E0916501F091660182FD12C075
:100910009081809168018F5F8F73209169018217A8
:1009200051F0E0916801F0E0E15BFE4F958F80931C
:10093000680101C08081FF91EF919F918F912F916C
:100940000F900FBE0F901F9018951F920F920FB629
:100950000F9211242F933F934F935F936F937F9345
:100960008F939F93AF93BF93EF93FF938FE491E0A7
:10097000CFDEFF91EF91BF91AF919F918F917F91CA
:100980006F915F914F913F912F910F900FBE0F90FC
:100990001F901895EFE4F1E01382128288EE93E045
:1009A000A0E0B0E084839583A683B78383E391E0DE
:1009B0009183808385EC90E09587848784EC90E038
:1009C0009787868780EC90E0918B808B81EC90E01C
:1009D000938B828B82EC90E0958B848B86EC90E0FD
:1009E000978B868B118E128E138E148E08958F9294
:1009F0009F92AF92BF92CF92DF92EF92FF920F93AE
:100A00001F93CF93DF937C018B016C0182E0C80EB2
:100A1000D11C4701E5E08E0E911CC0E0D0E0F6014C
:100A200061916F014AE050E0C801C5D05C016EE2FF
:100A3000C80167D08A0D9B1DC80FD91FC814D904DF
:100A400071F74AE050E0F7016581C801B4D08C0F1E
:100A50009D1FDF91CF911F910F91FF90EF90DF903D
:100A6000CF90BF90AF909F908F900895ECEEF1E003
:100A700083E491E091838083128213821482158231
:100A80000895CF92DF92EF92FF920F931F93CF932F
:100A9000DF936C017A018B01C0E0D0E0CE15DF0559
:100AA00089F0D8016D918D01D601ED91FC910190F5
:100AB000F081E02DC6010995892B11F47E0102C059
:100AC0002196ECCFC701DF91CF911F910F91FF903D
:100AD000EF90DF90CF9008956115710579F0FB01DB
:100AE00001900020E9F73197AF01461B570BDC015D
:100AF000ED91FC910280F381E02D099480E090E07B
:100B00000895DC01ED91FC910190F081E02D0994B4
:100B10004F925F926F927F92EF92FF920F931F938B
:100B2000CF93DF93CDB7DEB7A1970FB6F894DEBFB2
:100B30000FBECDBF7C01FA01CB0119A2223008F40F
:100B40002AE08E010F5D1F4F422E512C612C712C1B
:100B5000BF01A301920149D3F901CA010150110952
:100B60006A3014F4605D01C0695CD8016C93232B7A
:100B7000242B252B69F7B801C701AEDFA1960FB66C
:100B8000F894DEBF0FBECDBFDF91CF911F910F91C3
:100B9000FF90EF907F906F905F904F900895211598
:100BA000310541F4DC01ED91FC910190F081E02DE3
:100BB000642F0994ADCF9A01462F50E060E070E0B9
:100BC000EECF813039F018F0823051F00895109254
:100BD0006E00089580916F008D7F80936F0008955F
:100BE000809170008D7F8093700081E08093B000D1
:100BF0008091B100887F84608093B1001092B3002F
:100C00000895CF93C82F80911A018C1307C0E8EB89
:100C1000F0E0E4918FEF80931A0101C0EFEF8E2F87
:100C2000D0DF60E08C2FCF9116CD1F920F920FB6C0
:100C30000F9211242F933F934F935F936F937F9362
:100C40008F939F93AF93BF93EF93FF938091F501A1
:100C50009091F601A091F701B091F801892B8A2BB0
:100C60008B2B51F18091F201E091F301F091F401AD
:100C70009081892780838091F5019091F601A09160
:100C8000F701B091F801181619061A061B06BCF4F4
:100C90008091F5019091F601A091F701B091F801D2
:100CA0000197A109B1098093F5019093F601A093F2
:100CB000F701B093F80103C080911A01A2DFFF9100
:100CC000EF91BF91AF919F918F917F916F915F91C4
:100CD0004F913F912F910F900FBE0F901F9018953D
:100CE00040E855E260E070E080E090E000C026E07F
:100CF0008FE491E095CD1F920F920FB60F921124C1
:100D00002F933F934F935F936F937F938F939F9313
:100D1000AF93BF93EF93FF938BEC93EF909385008A
:100D20008093840032D0FF91EF91BF91AF919F915A
:100D30008F917F916F915F914F913F912F910F9084
:100D40000FBE0F901F9018958BEC93EF909385003A
:100D500080938400AFE6B0E08C918E7F8C93E0E8C6
:100D6000F0E080818C7F8083E1E8F0E08081877E05
:100D7000808380818560808380818D7F80838C915A
:100D800081608C93089581E008958091FA0191E04B
:100D9000980F9093FA01882339F021E030E03093E6
:100DA000FC012093FB0106C07894BDD9F894809192
:100DB000FA0181508093FA0108950F931F93CF9306
:100DC000DF931F92CDB7DEB781E08983A4DB88DF94
:100DD00000912D0110912E01F8011182108291DAFB
:100DE000B3DF81E0F80120813181232B09F080E01D
:100DF00089837894789489818823C1F081E0F8010F
:100E000020813181232B09F480E08093F9019091B6
:100E1000F90181E0911180E089838981882311F0B3
:100E2000B2DF02C080E090E08983E5CFCCDAF894AD
:100E300080E090E00F90DF91CF911F910F91089586
:100E40005058BB27AA270ED018C109D130F00ED1B7
:100E500020F031F49F3F11F41EF4FEC00EF4E09533
:100E6000E7FBCBC0E92F1AD180F3BA1762077307EB
:100E70008407950718F071F49EF549C10EF4E095CA
:100E80000B2EBA2FA02D0B01B90190010C01CA0144
:100E9000A0011124FF27591B99F0593F50F4503EEF
:100EA00068F11A16F040A22F232F342F4427585FE1
:100EB000F3CF469537952795A795F0405395C9F7F9
:100EC0007EF41F16BA0B620B730B840BBAF09150B1
:100ED000A1F0FF0FBB1F661F771F881FC2F70EC050
:100EE000BA0F621F731F841F48F487957795679523
:100EF000B795F7959E3F08F0B3CF9395880F08F00C
:100F00009927EE0F97958795089553D008F481E0BF
:100F10000895E89409C097FB3EF4909580957095EC
:100F200061957F4F8F4F9F4F9923A9F0F92F96E935
:100F3000BB279395F695879577956795B795F111AA
:100F4000F8CFFAF4BB0F11F460FF1BC06F5F7F4F47
:100F50008F4F9F4F16C0882311F096E911C0772359
:100F600021F09EE8872F762F05C0662371F096E862
:100F7000862F70E060E02AF09A95660F771F881F31
:100F8000DAF7880F9695879597F90895A9D080F09C
:100F90009F3740F491110EF0BBC060E070E080E834
:100FA0009FEB089526F41B16611D711D811D2BC03A
:100FB00045C0990F0008550FAA0BE0E8FEEF161682
:100FC0001706E807F907C0F012161306E407F5073D
:100FD00098F0621B730B840B950B39F40A2661F0B1
:100FE000232B242B252B21F408950A2609F4A14054
:100FF000A6958FEF811D811D089597F99F6780E861
:1010000070E060E00895882371F4772321F0985010
:10101000872B762F07C0662311F499270DC09051B6
:10102000862B70E060E02AF09A95660F771F881F84
:10103000DAF7880F9695879597F908959F3F31F0D5
:10104000915020F4879577956795B795880F911DF6
:101050009695879597F908959FEF80EC0895002461
:101060000A941616170618060906089500240A940D
:1010700012161306140605060895092E0394000C93
:1010800011F4882352F0BB0F40F4BF2B11F460FF22
:1010900004C06F5F7F4F8F4F9F4F089557FD90584B
:1010A000440F551F59F05F3F71F04795880F97FB2C
:1010B000991F61F09F3F79F08795089512161306E6
:1010C0001406551FF2CF4695F1DF08C01616170615
:1010D0001806991FF1CF869571056105089408954A
:1010E000E5DFA0F0BEE7B91788F4BB279F3860F4AE
:1010F0001616B11D672F782F8827985FF7CF869532
:1011000077956795B11D93959639C8F30895E8943E
:10111000BB2766277727CB0197F908954ADF08F4A4
:101120008FEF08950BD0A9CF9ADF28F09FDF18F03A
:10113000952309F062CF90CF1124EACFAFDFA0F35F
:10114000959FD1F3950F50E0551F629FF001729F5C
:10115000BB27F00DB11D639FAA27F00DB11DAA1F7B
:10116000649F6627B00DA11D661F829F2227B00DC8
:10117000A11D621F739FB00DA11D621F839FA00D53
:10118000611D221F749F3327A00D611D231F849FA3
:10119000600D211D822F762F6A2F11249F575040FA
:1011A0008AF0E1F088234AF0EE0FFF1FBB1F661F95
:1011B000771F881F91505040A9F79E3F510570F04E
:1011C0001CCFA6CF5F3FECF3983EDCF38695779576
:1011D0006795B795F795E7959F5FC1F7FE2B880F49
:1011E000911D9695879597F90895A1E21A2EAA1B4D
:1011F000BB1BFD010DC0AA1FBB1FEE1FFF1FA217C7
:10120000B307E407F50720F0A21BB30BE40BF50BC3
:10121000661F771F881F991F1A9469F7609570954C
:10122000809590959B01AC01BD01CF010895EE0F13
:0E123000FF1F0590F491E02D0994F894FFCF74
:10123E000000A8028000010000000000003F000036
:10124E00003F0000003FF201F201FF46697865643D
:10125E0053746570446973637265746500FD0100B3
:10126E00000000CA0341055A0374036603A9030074
:06127E00000000F704006F
:00000001FF
